:1000000019C033C032C031C030C02FC02EC02DC087
:100010002CC02BC02AC029C028C027C027C025C09B
:1000200024C023C022C021C020C01FC01EC01DC0CC
:100030001CC01BC011241FBECFEFD4E0DEBFCDBF5C
:1000400011E0A0E0B1E0E6EAF3E002C005900D9215
:10005000A230B107D9F711E0A2E0B1E001C01D92D2
:10006000A832B107E1F774D19CC1CACF1F920F9299
:100070000FB60F9211242F938F939F93EF93FF93BB
:1000800015B880910A018F5F877080930A012091D3
:100090000A0181E090E0022E01C0880F0A94EAF77D
:1000A0008095982F9F70906398B9807F8BB9E0916D
:1000B0000A01F0E0E05EFE4F808185B986B1807371
:1000C00090910501891731F190910401891314C0B1
:1000D000809103018F5F80930301853188F08091C7
:1000E0000401809305018091050182958F7093E052
:1000F000892780930B0104C08093040110920301AF
:100100002091020180910A0190910B01820F890FC9
:1001100080930201809109018F5F809309018233EE
:10012000D8F01092090180910601882329F080916E
:10013000060181508093060180910801882349F0CF
:1001400080910801815080930801811102C01092B2
:10015000B00081E080930701FF91EF919F918F9113
:100160002F910F900FBE0F901F901895809306014E
:1001700001C0A895809106018111FBCF089580915F
:1001800002018F5F80930201909102018091020130
:10019000880F892708958093B3006093080182E156
:1001A0008093B0000895ECE0F1E0A4E1B1E0119299
:1001B0001D9281E0E431F807D1F708950F931F9362
:1001C000CF93DF9380911C018F5F8A3018F4809366
:1001D0001C0132C010921C0180911D01882319F06E
:1001E0008230A9F40AC0ECE0F1E0908196959193F9
:1001F00091E0E431F907C9F71BC0ECE0F1E0908130
:10020000990F9193C1E0E431FC07C9F711C0EDE00B
:10021000F1E0ACE0B1E091919D93D1E0E431FD07D4
:10022000D1F7833011F090E001C09AEA9093130166
:100230008F5F837080931D01EBE1F1E0ACE1B1E0F1
:1002400082918E9381E0E431F807D1F71092140186
:1002500080911E0190911F01181619065CF40196F9
:1002600090931F0180931E01089724F010921F01A4
:1002700010921E0180910B01823091F08330B1F019
:10028000813039F480910001823018F081508093E0
:100290000001ACE0B1E0E4E1F1E080E090E01EC0FC
:1002A000809100018630A8F78F5FF1CF80911E0109
:1002B00090911F01892B69F780E890E00090000180
:1002C00002C0959587950A94E2F78093140181E026
:1002D00090E090931F0180931E01DBCF8D016C9104
:1002E0009F015081452F462321F064276C934527B9
:1002F000408311963196E9012881E8013881232B4A
:10030000EC01C05EDE4F288301968830910531F7FD
:10031000209120013091000180EC91E0032E02C079
:10032000959587950A94E2F7282B20932001209138
:10033000210180E890E002C0959587953A95E2F713
:10034000282B20932101DF91CF911F910F910895C8
:100350008FEF84B98FE087B98AEF8AB980E388B9D3
:10036000809305018093040110920B0189EF87BDF2
:1003700082E084BD83E085BD80916E0082608093C1
:100380006E001092B00084E48093B1000CDF78948A
:1003900010920701A895809107018823D9F30EDFF9
:0603A000F7CFF894FFCF37
:0203A600030052
:00000001FF
